:020000040000fa
:080000000002040000000000f2
:020000040000fa
:10040000eff22200cebf27000e018800000000009e
:100410000c000700a0d029000100200011000700f7
:10042000000020000000e000020032000000020096
:100430000000000016a60200000000000040da00e4
:100440000000fe004440a900a01620000000e000cb
:100450000300320000002000a00188004440a800f2
:100460000000060091018800800078000000eb0089
:1004700015003700e280400032a0b4009101ba00bc
:10048000e280400032a0b4009102ba00e280400055
:1004900032a0b4000002eb00472bde00f507b200eb
:1004a000602ce10004003a000059eb008301e900f0
:1004b000fdff3e00040037006128e100010032002a
:1004c0000082eb00040007001101ba000200e00006
:1004d000e8ff3a00000006003159ba008301e90044
:1004e0000c0032002159ba008301e90008003200f3
:1004f0000400e00003003a00e280400032a0b400b3
:10050000f5ff370011d9ba008301e900faff3a007c
:100510008100e800e180400032a0b4000000060045
:100520000040da000000fe001200fa0060079800a8
:1005300071079800020f98000022200030079800f1
:100540002022200020079800402220001007980059
:1005500080222000000f78006e00900060004000b4
:10056000e20f50003b003e0070238100e10f50007d
:100570000b003200802320000000e0000800320061
:100580000023200030079800202320002007980037
:10059000402320001007980080232000000f7800df
:1005a0003e0090009040900000c8b30000c0600082
:1005b0000004e00008003a009e0078000000eb0014
:1005c000800878003e0190009240900000c8b3007f
:1005d00000c07000104198002e0090001040900064
:1005e000644060000004e00004003a002e00900027
:1005f000904090000124a000114098000e08900047
:1006000050079800100037002e0090001040900016
:10061000614060000004e000fbff32007e009000bb
:1006200090407800014f98007e0090000000e800a4
:10063000700798000e489000e60507005e009000e5
:100640000000e900500798005e0090000000e00004
:10065000edff3a000e0890000080fa00000006004e
:100660006022b800060220000000d0008180d20085
:100670000482d2008582d2000000a0000202520053
:1006800083825a00030031000202420083824a0042
:100690000000a1000603e900f3ff3a000000060095
:1006a000efff07000400be00000006008000780095
:1006b0001104b100030035009101b10001003c00bc
:1006c0000050a00000000600800078001106b10074
:1006d000030035009101b10001003c000050a10071
:1006e000000006008001eb000200370081717800f5
:1006f0008301e800828f5100fcff3a0000000600f1
:10070000889fbe000004be00060037000804e80011
:100710000000fb00890078005d000700e10f400049
:1007200004003200184078000004e000f7ff3a00af
:100730000000eb004f04be0000000600881f780098
:1007400081af2200eeff07000004780081af220095
:10075000a00020004e000700080078004f04780039
:100760000000060010417800814f51000400320063
:100770000000e8000204e000faff3a000000eb008d
:100780000000060080017800000178003140780008
:10079000005978000004e000fcff3a0003007800f4
:1007a00000000600800078003004e000feff3a0000
:1007b000010050000000e90000000600000378007e
:1007c00080027800020278008001eb000800370008
:1007d0000402e90063c07800805a78008301e800d1
:1007e0000004e00002003a008000eb000600370041
:1007f000828f5100f6ff3a00fbff37000040eb000c
:1008000080f07a008100e800848f5000fbff3a00fe
:1008100006007800000006000c00fa00889fbe0069
:1008200000047800cfb09700f0ff2700d0bf9f00f2
:100830008004eb0099bf9f0088bf9f00a8bf9f0066
:10084000200c2000b0bf9f007881570070805700b7
:100850009c0007000fb89700094878000fb8970070
:1008600008045000080078004f04be000080fa0021
:10087000000006000000fa00cfb89700688157001a
:1008800080af22008f0007000080fa000000060001
:10089000889fbe000001780001047800b10090003c
:1008a0000118a300400032000198a30003003a00a1
:1008b000180090000000e0003b003a000190a0000a
:1008c0003104980082047800f90fb20018009000fb
:1008d0000000e00002003a0028009000000c7800c0
:1008e000ea8f540006003a00380090000078a30018
:1008f00003003a0088007800d0002000e4ff0700e1
:10090000180290006121b90058009000e8009000a2
:10091000800f5100818f59000b0032000400e80065
:10092000100498001800780009587800000c78002e
:1009300011c0b300c0b2220001487800ea8f540011
:10094000060032001900370088007800094078005e
:100950001900070080047800140037003800900068
:100960000088a3001100320018019000a800900038
:1009700048009000ecfe070098009000810f5000a6
:1009800004003200380090000003b30030049800e7
:100990008084eb000000eb00100498002800900019
:1009a000000c7800010037008084eb00090078001b
:1009b0004f04be00000006000200fa00889fbe003f
:1009c000a0ff9f0001047800b1009000810478002e
:1009d0000904b200020032000000fb0036003700bc
:1009e0000118a30005003a000103b3003104980088
:1009f000190498000080eb002f0037005800900089
:100a00000000e00006003a004800900012002000bc
:100a1000e6805700c4fe0700190498002400370040
:100a2000280090000000e00008003a0080b2220098
:100a300020049800000c780020002000500498004a
:100a4000100498000130a0003104980018019000b3
:100a5000a800900048009000b3fe07002800900016
:100a6000000c78000080eb0010049800180078005b
:100a7000aff8970001587800000c78002ff8970025
:100a8000ea4f50000a003a00380090000088a300a6
:100a90000700320018019000a80090004800900064
:100aa000a1fe070019049800a8009000010c78002e
:100ab000aff897000100fb004f04be000080fa0071
:100ac00000000600fe874700889fbe008a9fbe0088
:100ad0008c9fbe008e1f7800f0b79f000107780042
:100ae00082bf9f000000eb00a0b79f009f0237006d
:100af0008006eb0050c2b30080cf500009003200e6
:100b00000100fb00ffb0970061ff0700e10f40000c
:100b100096023200afb097008100e800a1b79f00b5
:100b2000920237009e407800d0c2b30080cf5000c0
:100b30000c00320007003c006d40500080cf500098
:100b40000a0032006b40400080cf50000e003a0097
:100b50000800370000c3b30080cf50000a003a00fd
:100b6000060037000d30a000050037000d00a00082
:100b7000030037000d10a000010037000d20a00079
:100b80000e07e800e7ff37000d18a3000100320050
:100b90000d00a1000d38a300010032000d20a100be
:100ba0000100fb0002fd2f0002004000e90f500091
:100bb0000e003e000002eb00c4b79f0082017800e7
:100bc000cfb297006a28b9001e01fb000001410066
:100bd00003014100c2b79f005e00fb00030040001c
:100be000e90f50000b003e00f5ff37000006eb0058
:100bf000ccb79f00a0c2b30080cf500005003a00e0
:100c00000fb89700c000780080bf9f00c1b79f0059
:100c10000e07e8000001eb00b2b79f00e0c2b3008e
:100c20009e4f100018003a000de0a0008e00e80072
:100c300064405000914f100002003200010778001c
:100c40000c0037000fba9700c402780084bf9f00e1
:100c5000b5b79f000e87e8000b0037003fb697003e
:100c60006a60b9000000410003004000b0b79f0077
:100c70000e07e8001e01fb0003fd2f0003004100ea
:100c8000e90f5000f5ff3600be407800e1d79f0025
:100c9000c0c6b30080cf5000220032000f003c00dd
:100ca0006940500080cf50007700320004003c00c3
:100cb0000104e000310232006b4050000f003700a9
:100cc00040c6b30080cf5000930032006540400022
:100cd00080cf50008b003a008f00370030c7b30040
:100ce00080cf50001a00320007003c0064405000e2
:100cf00080cf5000110032000040e80080cf50004b
:100d000080003a000f00370050c7b30080cf50007a
:100d1000800032006340400080cf500079003a00ec
:100d200009003700000028000d48a30001003a0028
:100d30000001200080867600d3ff37000d60a00000
:100d4000750037000d50a0000d70a0007200370034
:100d50008fb897004100780081bf9f0000047800a1
:100d60000000e00001003a0008ac22008004eb0023
:100d7000010037008104e800890078000880440001
:100d80001004e000fbff3a003fb197000200e000d2
:100d900003003200890f5100010031008204780005
:100da0000002eb00e4af9f00cfb29700898f5200a2
:100db0000200360009805200e0af9f004368de0069
:100dc000e10660001b003a000d06780009003700bc
:100dd000ffb0970000022000adfe0700e10f4000c9
:100de000030032002fb097000000e800a0b79f007a
:100df0000c06e800efa89700810f5600f4ff3a00b8
:100e00000081eb00e2af9f000a0037008800780005
:100e10003100fb0001047800ffb097009cfe070042
:100e2000e10f4000030032002fb297000402e800f7
:100e3000a4b79f000900e90080047800e10f40009a
:100e4000f2ff3a000006eb000d00e0000a003a0055
:100e5000c6013700ffb09700000220008cfe07009b
:100e6000e10f400003003200afb297008502e800b6
:100e7000a5b79f000c06e8006fa89700800f5600ea
:100e8000f4ff3a00b90137008fb8970041007800ad
:100e900081bf9f00cf80de000101780082017800d1
:100ea0000205be000004be000203be000002be0038
:100eb0004822de00482edd0004027600e4d79f00c1
:100ec0000d48a3000a0032000404e00008003200cc
:100ed000e14f42000600320071fd2f000180470003
:100ee00004487800184098002900200002003700cc
:100ef000f0d79f001900200072fd2f0002844700e8
:100f0000a1ff370064fd2f00048447001900200072
:100f10009dff37000d0cb3000d007800000cb200ef
:100f200028003a000d00e00005003d008fba970050
:100f30004505be004504be0085bf9f001400370074
:100f40000d48a3000b0032000fbe97004c00be00fe
:100f50008cbf9f004f89de00cf91de000002be00f3
:100f600002037800820378000605be000404be0078
:100f7000070037008fb897004100780081bf9f00bd
:100f800000047800cfc4de00090578008a057800e7
:100f9000e00f5400e08f5c00e00f5d00e08f5d002b
:100fa0001f003d003d00b3006000b8006011b800b4
:100fb00008045000898458000a0559008b8559009f
:100fc000170037000d00e00005003d000fb9970045
:100fd0004205be004204be0082bf9f0010003700e1
:100fe0000d48a300070032000fba97004400be006e
:100ff00084bf9f006011b8000205be000004be005f
:10100000070037008fba97004500780085bf9f0022
:1010100000047800090020000a0020000b002000d6
:101020003fb697000c00e00007003a00e00f5400c4
:10103000e08f5c00e00f5d00e08f5d0002003a0091
:1010400010002000b0b79f008d007800010cb200a6
:10105000e1b79f0000042000808f50003000320074
:1010600003003c000100e0000800320040003700af
:10107000000820006fb19700800f5100140032006b
:10108000000c2000800f510039003a0014c0b3005a
:10109000e59e22000b0037000400fb004300dd004a
:1010a000050040005001be004000be000040e100cd
:1010b00001c8e10002d0e10003d8e1002b003900b3
:1010c0000442e800f44f5200f3ff3a0027003700d3
:1010d00000012000010020006011b80014c0b3001e
:1010e0000040e10001c8e10002d0e10003d8e100c6
:1010f0001e003900450020000000d0008180d20091
:101100000281d2008381d2008502e900faff3a0011
:101110000442e800f04f5200f1ff3a00130037009c
:1011200080002000010020006011b80014c0b3004e
:101130000040e10001c8e10002d0e10003d8e10075
:101140000a0039003c0020000000d0008180d2005d
:101150000281d2008381d2000c06e900faff3a0036
:101160000442e800f54f5200f1ff3a00e4d79f0037
:10117000efd097000100fb003fb19700820f5000b5
:1011800002003d00e2d79f00040037003fb2970005
:10119000800f520001003d00b0b79f00cfb2970012
:1011a0000500e000040032006380660002003200a7
:1011b0008502e900c5b79f000de8a3000b003200cf
:1011c0004fb697003fb09700800f560003003c00d9
:1011d0008000eb00c1b79f00040037004fb19700bb
:1011e0003fb2970004015100c2b79f00efd29700b1
:1011f0000500fb000006eb00dcaf9f00cfb09700be
:10120000808f50000200340000805000d0af9f005b
:101210000d28a30037003200e18066000d18a300fe
:101220000c003200d00220000100e00001003a0072
:101230000080e900ffb0970095fd0700e10f400036
:101240000e0032002fb197000201e800a2b79f0004
:101250000a0037000100e00008003200ffb09700ec
:10126000000220008afd0700e10f40000300320069
:101270002fb297000402e800a4b79f00dfaa9700ee
:101280000500e0000f0032000006eb00ffb0970001
:10129000000320007efd0700e10f40000300320044
:1012a0002fb097000000e800a0b79f000c06e800f0
:1012b000dfa89700810f5600f4ff3a000001eb0011
:1012c000d2af9f003fb29700c320dd00609e220096
:1012d0008080400091b79f004220dd0064005000f4
:1012e00080b79f006320b900f0af9f0063065000f5
:1012f00084003700dfaa97000500e00011003200eb
:10130000688066000f003a0000067800ffb0970082
:10131000000220005efd0700e10f400003003200e4
:101320002fb097000000e800a0b79f000c06e8006f
:10133000dfa89700810f5600f4ff3a000001eb0090
:10134000d2af9f00e18066000d18a3000c003200b0
:10135000d00220000100e00001003a000080e90016
:10136000ffb097004afd0700e10f4000d5ff3200b3
:101370002fb297000402e800a4b79f00d1ff370006
:101380000100e000cfff3200ffb097000002200014
:101390003ffd0700e10f4000caff3200afb29700e7
:1013a0008502e800a5b79f00c6ff370000042000b3
:1013b000efb09700808f50003100320003003c00f6
:1013c0000100e000080032003e0037000008200065
:1013d0006fb19700800f510011003200000c200007
:1013e000800f510037003a001fb097003002be0056
:1013f0002003be000800be000a01be000d01070068
:10140000a4002000050020006033b8001001070090
:1014100004c3b30004424000e4d79f002900370012
:1014200075ac2200d5b79f000d58a30002003a000a
:1014300080ad2200d0b79f001400200005002000de
:101440006033b8008fb097008100e90005003300d9
:101450000402d0008582d2000683d2008783d200a6
:10146000f9ff37000800be000a01be00f1000700c6
:101470006f0060005fb19700624078001000370095
:1014800014002000050020006033b8000c00780034
:101490000000e900050033000402d0008582d2007c
:1014a0000683d2008783d200f9ff37000800be0010
:1014b0000a01be00df000700674060000043b00083
:1014c000e0d79f00efd097000100fb00ffb097002e
:1014d000effc0700e10f4000030032002fb197003e
:1014e0000201e800a2b79f001fb2970068025200f5
:1014f00094b79f008fb29700e482520085b79f0097
:1015000063065600d0ff2f003fb197000090b9004e
:101510007faa97000000420063005000800f560031
:10152000a2ff3a000d38a30010003200dfaa970096
:101530000500e0000d0034000006eb00ffb097004e
:1015400000022000d2fc0700e10f4000030032003f
:101550002fb097000000e800a0b79f000c06e8003d
:10156000dfa89700810f5600f4ff3a00be407800d4
:10157000e1d79f000104e0005dfd3a002fb0970025
:101580004f0778004f06be004f05be004f04be0057
:10159000ef01b10000000600881f78000004780009
:1015a0005001be004000be0004004000858048009d
:1015b0000601490087814900009cbe000294be00dc
:1015c0000400e1000588e1000690e1000798e100d1
:1015d00002003100680044001008e8004f04780061
:1015e00000000600f4874700889fbe008a9fbe0067
:1015f0008c9fbe008e1f78000205be000004be0056
:10160000d4b79f00e5b79f00f6b79f0087bf9f0044
:101610000000eb00c0b79f00b0b79f00a0b79f00cd
:1016200090b79f0080b79f000d042000bfb09700c7
:101630004fb09700000140000000e0000f003d00a7
:101640004f08de0000007100c0b79f004d0007008a
:1016500001003d00120020005000070001003d0085
:101660001200200055000700610007006600070017
:101670000f004000c8ff0700220037004f08de00bf
:1016800000067100ccb79f003e00070001003d003e
:10169000120020004100070001003d001200200060
:1016a00046000700520007000fb297009fb2970054
:1016b0002fb39700bfb397005900070000005200f6
:1016c00081805a0002015b0083815b0080b79f002c
:1016d00091b79f00a2b79f00b3b79f000007eb0030
:1016e0004f0007000020e10001a8e10002b0e10086
:1016f00003b8e100010031001e0020000e0056007a
:10170000c0b79f004fb297000400e000070035000b
:1017100010002000010020006011b80008047000d3
:10172000898470000a0571008b8571008d06e900bf
:10173000beff3a000400e00003003d003200070055
:101740000f00400094ff07004fa897000000e00042
:1017500004003a000fb497009fb497002fb597008c
:10176000bfb597000800be000a01be004f07780011
:101770004f06be004f05be004f04be004f01b10032
:10178000000006000180400090b79f000001eb00c0
:101790008fb097000100e00000000600020070001a
:1017a00090b79f000180400080b79f000001eb00d0
:1017b000ffa897000100e000000006000200700092
:1017c00080b79f00018040006faa9700cf20de0005
:1017d00001007000f0af9f00040242000800be004c
:1017e0000a01be004f18de00000272000000060071
:1017f000e4af9f000804440089844c000a054d00b2
:101800008b854d00000006003fb29700cfb29700d5
:101810005fb39700efb3970000fe2f0000000600b3
:101820003fb09700cfb097005fb19700efb197003e
:1018300000000600881f780018002000881f78002c
:1018400068ff07008f87e9004f047800000006005a
:10185000801feb0063ff07008f87e9000000060090
:10186000889fbe008a9fbe008c1f78000205be00c4
:101870000004be00e00f5000e08f5800e00f590058
:10188000e08f59000c003d006000b8006011b80006
:1018900008045000898458000a0559008b855900b6
:1018a0001c0020001f00070008003d001800070072
:1018b0000006eb00050037000006eb0019000700ea
:1018c00002003d000f0007001c0020000800be00c1
:1018d0000a01be00d7ff07000203be000002be00df
:1018e0000c00e00001003200060007000400be000a
:1018f0000601be004f0678004f05be004f04be0033
:10190000000006006000b8006011b8000000370059
:10191000040250008582580006035900878359004d
:1019200000000600e00f5200e08f5a00e00f5b005d
:10193000e08f5b0000000600889fbe008a9fbe000b
:101940008c1f78000205be000004be00e00f5000ae
:10195000e08f5800e00f5900e08f59000a003d0069
:101960006000b8006011b800080450008984580075
:101970000a0559008b8559001c002000180007003b
:1019800007003d00050037000006eb0014000700cb
:1019900003003d006000b8006011b80015000700aa
:1019a0000800be000a01be00a9ff07000203be0036
:1019b0000002be000c00e000030032006000b8002e
:1019c0006011b8000b0007000400be000601be0055
:1019d0004f0678004f05be004f04be000000060011
:1019e000e00f5200e08f5a00e00f5b00e08f5b00d9
:1019f00000000600040250008582580006035900ca
:081a0000878359000000060075
:020000040000fa
:0200000401f009
:04000c00f8ff0000f9
:020000040000fa
:0200000401f009
:040010007dff000070
:020000040000fa
:0200000401f009
:040014007fff00006a
:020000040000fa
:1000080090020000900200009002000090020000a0
:100018009002000090020000900200009002000090
:100028009002000090020000900200009002000080
:100038005e0f000090020000900200009002000095
:100048009002000090020000900200009002000060
:100058009002000090020000900200009002000050
:100068009002000090020000900200009002000040
:100078009002000090020000900200009002000030
:100088009002000090020000900200009002000020
:10009800900200009002000090020000100f000083
:1000a8009002000090020000900200009002000000
:1000b80090020000900200009002000090020000f0
:1000c80090020000900200009002000090020000e0
:1000d80090020000900200009002000090020000d0
:1000e80090020000900200009002000090020000c0
:1000f80090020000900200009002000090020000b0
:10010800900200009002000090020000900200009f
:10011800900200009002000090020000900200008f
:10012800900200009002000090020000900200007f
:10013800900200009002000090020000900200006f
:10014800900200009002000090020000900200005f
:10015800900200009002000090020000900200004f
:10016800900200009002000090020000900200003f
:10017800900200009002000090020000900200002f
:10018800900200009002000090020000900200001f
:10019800900200009002000090020000900200000f
:1001a80090020000900200009002000090020000ff
:1001b80090020000900200009002000090020000ef
:1001c80090020000900200009002000090020000df
:1001d80090020000900200009002000090020000cf
:1001e80090020000900200009002000090020000bf
:0801f8009002000090020000db
:020000040000fa
:10020800900200009002000090020000900200009e
:10021800900200009002000090020000900200008e
:10022800900200009002000090020000900200007e
:100238005e0f000090020000900200009002000093
:10024800900200009002000090020000900200005e
:10025800900200009002000090020000900200004e
:10026800900200009002000090020000900200003e
:10027800900200009002000090020000900200002e
:10028800900200009002000090020000900200001e
:10029800900200009002000090020000100f000081
:1002a80090020000900200009002000090020000fe
:1002b80090020000900200009002000090020000ee
:1002c80090020000900200009002000090020000de
:1002d80090020000900200009002000090020000ce
:1002e80090020000900200009002000090020000be
:1002f80090020000900200009002000090020000ae
:10030800900200009002000090020000900200009d
:10031800900200009002000090020000900200008d
:10032800900200009002000090020000900200007d
:10033800900200009002000090020000900200006d
:10034800900200009002000090020000900200005d
:10035800900200009002000090020000900200004d
:10036800900200009002000090020000900200003d
:10037800900200009002000090020000900200002d
:10038800900200009002000090020000900200001d
:10039800900200009002000090020000900200000d
:1003a80090020000900200009002000090020000fd
:1003b80090020000900200009002000090020000ed
:1003c80090020000900200009002000090020000dd
:1003d80090020000900200009002000090020000cd
:1003e80090020000900200009002000090020000bd
:0803f8009002000090020000d9
:020000040000fa
:101a080000950000000000000000000001f900003f
:101a1800000000000000000009af00000000000006
:101a2800010000000a1b0000000000000100000087
:101a38000cc3000000000000000000000daf000013
:101a4800020000000000000010ff0000000000007d
:101a58000000000011ff000000000000010000006d
:101a680012ff0000000000000100000018ff000045
:101a7800000000000100000019ff00000000000045
:101a88000100000020ff000000000000000000002e
:101a980021ff0000000000000000000026df000019
:101aa8000100000000000000377300000000000083
:101ab800000000003a2500000300000000000000bc
:101ac8003b250000000000000000000053690000f2
:101ad8007a650000206f0000663a000020250000ab
:101ae800640d00000a000000486500006164000001
:101af80020610000743a000020250000640d0000f9
:101b08000a00000054610000696c000020610000b8
:101b1800743a000020250000640d00000a0a000045
:101b280000430000616c00006c6900006e670000f3
:101b380020500000726900006e740000206f0000e1
:101b48006e200000616e0000206500006d700000ce
:101b5800747900002043000069720000637500007a
:101b68006c6100007220000042750000666600008b
:101b780065720000000000002e2e0000002000000a
:101b8800202000002020000020200000202000004d
:101b9800202000000000000073740000696c000041
:101ba8006c200000776f0000726b0000696e000007
:101bb800670d00000053000074610000727400009b
:101bc800696e000067200000746f0000207000003c
:101bd800726900006e740000206300006c750000dc
:101be80073740000657200002063000068610000e3
:101bf800696e00000d000000256c000075090000ea
:101c0800000d00000a0000007374000061720000fb
:101c1800746900006e670000204900006e740000bf
:101c28006567000072610000746900006f6e000053
:101c38002074000065730000740d00000049000066
:101c4800443a000020250000750d00000a0000003d
:101c580025300000356400002e620000696e000027
:101c680000660000696c0000656e0000616d000090
:101c780065200000776900006c6c0000206200009d
:101c8800653a000020250000730d00000a000000de
:101c9800770000004f76000065720000466c000077
:101ca8006f7700002042000075660000666500003e
:101cb8007220000077610000732000006f7600003a
:101cc80065720000666c00006f77000065640000b4
:041cd8000d000000fb
:020000040000fa
:107000000400fa000000eb00000f780005003700d4
:107010001e0178002191220010c0b30000f1780019
:107020001e0fe800200020009e0f1000f8ff340023
:107030000040eb0040e8b7000b300700809b2200c7
:10704000370207000004e00036003a0011428000d9
:10705000809b220080087800114280000000eb0035
:10706000d0009800114280000000eb00e000980082
:10707000124280006000b800700198000109980079
:10708000124280006000b8001009980021099800a1
:1070900011428000c0c5b300c05898001000200005
:1070a000000f780007003700114280001e007800b2
:1070b0007c0040008100400000c2b300804878009e
:1070c0001e0fe800a00020009e0f1000f6ff340005
:1070d000114280000000eb00c010980011428000b7
:1070e00000012000e01098001242800070408000f3
:1070f00081408000701198000119980012428000b0
:10710000704080008140800010199800211998007b
:107110000040eb0012e8b7001000200010079800b4
:10712000020037000000eb00100798001e009000de
:107130000080fa00000006001400fa00881f7800a2
:10714000600798007107980002579800135798003d
:107150006e0090004010900050079800b000200092
:10716000100798006e00900080189000701090003a
:107170006e01900010199800211998007e0090006f
:1071800060119000020078000080ea008180ea002f
:10719000300798005e0090000000e00009003a000f
:1071a000ea00470012c0b3006e009000a809070073
:1071b0000000e0000f003a00b00120001007980026
:1071c0000c0037005e0090006f0060000000e000df
:1071d00008003200ea00470012c0b3006e009000c1
:1071e0009b0907000000e00002003a00b001200007
:1071f000100798001e009000fb0f5000bb003200eb
:107200001e0090000000e000b8003200ea004700d5
:107210006e009000e40d0700504798005e4090001b
:10722000e24f5000b10032005e4090000004e000e8
:10723000a5003a006e009000e01090004107980011
:10724000ce009000f003200000806000400798000e
:107250001e5090000080fb00100f98001e08900048
:107260000000e000040032009e089000e18f500012
:107270002b003200990037004e009000e80f5000bc
:10728000960032000000eb0010079800d0c6b30053
:10729000104798000040eb00404798001c00370062
:1072a0004e4090000080fb00ee0090007c0040000b
:1072b0000100400010407800104798004e409000b8
:1072c0000080fb00fe0090007c00400001004000b8
:1072d00010407800004f78001e4090000080fb00b6
:1072e000f2e40700000478001e80fb00efe40700d2
:1072f000800f540003003200b000200010079800f7
:10730000760037004e4090000040e800404798006b
:107310004e409000ea4f5000e1ff36006f0037000a
:107320004e009000be009000010060000000e000f0
:107330006a003a004e009000ef0f500067003200e4
:107340000000eb0010079800d0c6b300104798006b
:107350007e009000c0589000a0c2b30080cf5000c3
:10736000280032000040eb00404798002200370020
:107370004e4090000080fb00ee0090007c0040003a
:107380000100400010407800104798004e409000e7
:107390000080fb00fe0090007c00400001004000e7
:1073a00010407800004f7800a0c2b3009e4f10003c
:1073b00014003200f0c3b3009e4f10000b003200e7
:1073c0001e4090000080fb00b8e407000004780035
:1073d0001e80fb00b5e40700800f5400030032005c
:1073e000b000200010079800060037004e409000c3
:1073f0000040e800404798004e409000e74f5000a2
:10740000dbff36007e009000c0609000a0c2b30099
:1074100080cf5000310032001e0090000000e000dc
:107420002e003a0080c0b300404798002200370089
:107430004e4090000080fb00ee0090007c00400079
:107440000100400010407800104798004e40900026
:107450000080fb00fe0090007c0040000100400026
:1074600010407800004f7800a0c2b3009e4f10007b
:107470001a003200f0c3b3009e4f10000b00320020
:107480001e4090000080fb0088e4070000047800a4
:107490001e80fb0085e40700800f540003003200cb
:1074a000b0002000100798000c0037004e409000fc
:1074b0000040e800404798004e409000ea4f5000de
:1074c000dbff3600050037000e5090000004e0009e
:1074d00002003a000000eb00100798005e009000e8
:1074e0000000e8005007980045ff37001e0090009c
:1074f0004f0478000080fa00000006001200fa0035
:107500005007980061079800624f98000000eb0058
:10751000000f78005e00900090007800410798000e
:107520004e009000505890000004e00003003a0024
:1075300070002000000f7800880037005e00900087
:1075400080189000701090005e0190001019980053
:10755000211998006e009000100078000000e000f3
:1075600009003a0012c0b300ee0090005e009000e7
:10757000b70807000000e00010003a00b00120004a
:10758000000f78000d0037006e00900010007800aa
:107590006f0060000000e0000800320012c0b3007d
:1075a000ee0090005e009000a90807000000e000d7
:1075b00002003a00b0012000000f7800ee009000b9
:1075c0005e009000f80c0700604798006e40900045
:1075d0000004e00003003200b0002000000f78003b
:1075e0005e0037005e0190006000b80070019800f6
:1075f000010998005e009000a0009000100090002b
:107600005e0190003001980041019800de0090007a
:107610000000eb00d0009800de0090000000eb00be
:10762000e00098006e409000e14f500003003a00e7
:10763000b0002000000f7800280037005e009000a6
:1076400030019000c00190004e009000161207001b
:1076500010079800210798003ec8bf000004e00012
:1076600006003200ff1307000004e00003003200b0
:1076700090002000000f98003a003700de009000d4
:10768000c1418800d2418000e34180001e0090008b
:10769000ae009000800f5100818f59000f00320022
:1076a0000040eb0040e8b7004e0090001001780069
:1076b0001e009000ae0090000d2f07000004e000b7
:1076c00002003a0080002000000f78001e009000a9
:1076d000ae009000d0418800e14188005e0190003a
:1076e000b2089000b0ff2f000080600030099800c1
:1076f000ee48900070c7b30080cf50000400320005
:10770000ee48900010c6b30080cf50000a003a0047
:10771000de009000310890000000a000b008980042
:107720005e019000b2089000d0ff2f000080600042
:1077300030099800090037005e019000b2089000ff
:10774000e0ff2f000080600030099800de0090000c
:10775000310890000010a000b00898009e0078004a
:10776000010f98000e0890000080fa00000006004b
:107770001c00fa00200f9800320f9800430f980069
:107780000040eb00204798002e089000100f780072
:107790001e007800405890000080fb00500f9800b9
:1077a0005e089000e10f50000d0032005e0990006d
:1077b000e30f5100010032001200370080ff2f005c
:1077c000f1ff20002007980031079800f0ff2f00fc
:1077d000f1ff200040079800510798001100370082
:1077e00080ff20000100200020079800310798004a
:1077f000f0ff2f000100200040079800510798007b
:107800000800370080ff2f000100200020079800ab
:1078100031079800f0ff2f0001002000400798007a
:10782000510798002e08900030019000c001900090
:1078300062079800730798006e019000fe019000a7
:107840001e007800ac170700000f9800110f980079
:107850000e0990009e0990004e009000de009000fe
:10786000800f5100818f590003003a0080c0b3009f
:1078700020479800130037001e0078002009900070
:10788000b00990000e0890009e089000800f5100f3
:10789000818f590002003e00a0c0b300204798002d
:1078a0000e0990009e0990002e009000be009000ee
:1078b000800f5100818f590002003900c0c3b3000e
:1078c000204798002e0890000e0990009e09900015
:1078d00032009800430098003e089000ce089000c7
:1078e00061005000e0805800300f9800410f980070
:1078f0003e089000ce089000e00f5000e08f580046
:10790000030032002e4090000004e000c5ff32006a
:107910002e4090000080fb000080fa00000006006e
:107920000400fa00100798000040eb00004f7800b8
:107930009e0090000040eb00d05898009e00900000
:107940000047220080087800962f0700e14f500082
:107950000500320060c0b300004f780060c0b30083
:1079600012e8b7000d0037001e0090000e0007005f
:10797000004f78001e04e00008003a001e0090004e
:10798000df000700004f78001e04e00003003a000b
:107990009e00900010c0b300d05898001e80fb00dd
:1079a0000080fa00000006000e00fa003007980080
:1079b0000040eb00304798003e0090001001780036
:1079c0006000b8004a2e0700e14f50000500320069
:1079d00080c0b3003047980080c0b30012e8b70001
:1079e000c10037003e00900010007800000f7800c2
:1079f0001e007800e0f8930050c5b30080cf50001f
:107a000069003a001e007800f0f89300a0cab300a5
:107a100080cf500064003a003e00900010007800d3
:107a200061032000e31007008040780060c4b300c9
:107a300080cf50002a003a003e00900010007800ed
:107a400071032000db1007008040780010c4b300f1
:107a500080cf500022003a003e00900010007800d5
:107a600081032000d31007008040780040c5b30098
:107a700080cf50001a003a003e00900010007800bd
:107a800091032000cb1007008040780010c3b300a2
:107a900080cf500012003a003e00900010007800a5
:107aa00061022000c31007008040780090c2b3003c
:107ab00080cf50000a003a003e0190006000b800fc
:107ac0001001980021019800be00900020c0b30072
:107ad000c05898000000eb00500798008500370060
:107ae0003e0090001000780021052000b110070032
:107af0008040780060c4b30080cf50002a003a0074
:107b00003e0090001000780031052000a910070009
:107b10008040780010c4b30080cf500022003a00ab
:107b20003e0090001000780041052000a1100700e1
:107b30008040780040c5b30080cf50001a003a0062
:107b40003e009000100078005105200099100700b9
:107b50008040780030c3b30080cf500012003a005c
:107b60003e009000100078002104200091100700d2
:107b70008040780090c2b30080cf50000a003a00e5
:107b80003e0190006000b8001001980021019800ab
:107b9000be00900030c0b300c05898008000eb00d9
:107ba00051079800530037003e0090001000780005
:107bb000200798002e009000e0f8930050c5b30015
:107bc00080cf500005003a002e009000f0f893009e
:107bd000a0cab30080cf50000500320040c0b300ff
:107be00012e8b70040c0b300304798003e003700ad
:107bf000ae00900061c093000082fb0071c0930052
:107c00000080fb004800dd000400700000017800e7
:107c100001c893000082fb0011c893000080fb00a4
:107c20004800dd0004007000800178003e009000f4
:107c300012009800230098002e009000a0c093002e
:107c4000214798002e4090000080fb0040079800dc
:107c50004e009000ee0f50001f003e00100020006c
:107c6000ce0090000100dd006007980000052400b0
:107c7000ee009000008060000000e0000e003a007e
:107c800000802100ee009000008060000000e00015
:107c90000d003a00ee009000628060000000e000fd
:107ca00001003a000c003700be00900010c0b30085
:107cb000c05898000c003700be00900020c0b300f0
:107cc000c058980008003700be00900030c0b300d4
:107cd000c05898000400370050c0b30012e8b70045
:107ce00050c0b300304798003e4090000080fb0039
:107cf000500798005e0090000080fa000000060027
:107d00001800fa00200f98000040eb006047980030
:107d10002e089000100178002e089000a00090001e
:107d200010009000722d0700e14f50000500320056
:107d300080c0b30012e8b70080c0b300604798006d
:107d4000e90037002e089000100078002007980006
:107d50002e009000e0f8930050c5b30080cf500093
:107d600005003a002e009000f0f89300a0cab3007e
:107d700080cf50000500320030c0b30012e8b700d9
:107d800030c0b30060479800d70037002e0890003d
:107d900010007800e10020000f100700000f7800ad
:107da0002e08900010007800d1002000011007007c
:107db000804078002e089000315898002e089000de
:107dc00010019000a00190001e007800010020002a
:107dd00002004000838048002e0990003001980086
:107de000410198002e089000100078000101200049
:107df000f00f0700804078002e089000215898006e
:107e00002e0890001000780061012000f20f07009a
:107e1000800078002e089000410898002e089000fd
:107e2000400890000000e00007003a002e08900093
:107e30001000780041022000011007008000780047
:107e40002e089000410898002e0890003001900004
:107e5000c00190002e089000205890008080fb0008
:107e60002e089000400890000088b9000100200012
:107e700002004000838048002e09900050019800c5
:107e8000610198002e089000100078001101200078
:107e9000d10f0700800078002e089000110898008c
:107ea0002e0890001000780031012000ca0f070052
:107eb0000100200060079800710798006e00900094
:107ec000fe009000e00f5000e08f580006003a00de
:107ed0002e0890001000780001022000d80f070043
:107ee00060079800710798002e0890001000780035
:107ef000b1002000b80f0700100798001e00900086
:107f00000000e000040032001e00900061006000ec
:107f10000004e0000500320030c0b30012e8b700f2
:107f200030002000300f9800720037002e089000bb
:107f300010089000c500dd001e0090000080400089
:107f40000000e9001e019000110009000280d80025
:107f500001002000000f9800110f98002e089000db
:107f6000205890008080fb002e0890004008900070
:107f70000088b9001e0040006101b8000e089000a2
:107f80009e08900002014000838148006e0090002e
:107f9000fe009000020050008380580040079800c7
:107fa000510798002e089000305890000081fb0087
:107fb000030020004e009000de009000a8e10700c2
:107fc0002e09900020099800310998002e08900091
:107fd00020099000b009900040ff2000010020001f
:107fe000800f5100818f590004003e00ae089000c0
:107ff00010c0b300c05898000f0037002e08900042
:1080000020099000b009900040ff2f0001002000df
:10801000800f5100818f590004003e00ae0890008f
:1080200020c0b300c058980003003700ae0890008d
:1080300030c0b300c05898002e08900040589000ff
:10804000e34f500011003a002e0890001000780015
:10805000c10220007a0f070070408800814088002c
:108060002e08900050019000e00190000e08900052
:108070009e08900002004000838048002e09900076
:1080800070019800010998000f0037006000b800e7
:1080900070408800814088002e08900050019000b8
:1080a000e00190002e089000100890004400de00cf
:1080b0000100200002004000838048002e0990004b
:1080c00070019800010998009e0090000020200097
:1080d000808f50000400320030c0b3006047980029
:1080e00030c0b30012e8b7006e4090000080fb0083
:1080f000300f98003e0890000080fa000000060053
:108100000600fa00200798006000b800008fbe004b
:108110002e0090002008900001002000008fbe007b
:108120001e00be00c000dd0000002000008fbe0069
:108130002e00900050089000010020001e1f7000cb
:108140001e9770001e00be000080fa0000000600ae
:108150001400fa0050079800610798007207980011
:10816000030f98006000b8002007980031079800be
:108170005e009000ee009000e00f5000e08f58008d
:10818000070032007e0190008e0990001000200050
:1081900001002000800f5100818f590003003e0034
:1081a0000080eb00100f9800270137007e00900040
:1081b0008e08900061015000e08158005e00900040
:1081c000ee009000800f5100818f590003003100b4
:1081d0008080eb00110f98001b0137003ec8bf00e4
:1081e0000004e000060032001e1107000004e00059
:1081f000030032000081eb00120f980012013700db
:1082000000472200022020008000eb0035e107003b
:1082100000472200400798005e009000ee009000aa
:10822000008fbe001e00be0012ec230003002000e1
:108230000be107004e09dd00c200de008100710085
:108240004e00dd0020079800310798001e00be0098
:1082500012ec23000300200011e10700008fbe0094
:108260001e00be00f203200003002000fce0070017
:108270004609dd00ca01de00830171004601dd0010
:108280002e009000be0090000200700083807000fd
:1082900020079800310798001e00be00f20320005e
:1082a00003002000fee00700008fbe001000200049
:1082b000010020003e014000ae8148002e009000e9
:1082c000be009000020070008380700020079800bc
:1082d000310798002e009000be0090004008de009c
:1082e0000100200080407800f06222000148780000
:1082f0002e009000be0090004809dd004800de001e
:1083000000007100c808de00804078000063220091
:10831000014878002e009000804078001063220011
:10832000014878007e0190008e0990005e00900068
:10833000ee0090000001510081815900ce009000b4
:10834000f00f20000002610021c89300604060002f
:1083500004407000a0c89b004812de0031c89300a2
:108360006040600004407000b0c89b00f00f200027
:108370000082610041c893006040600004407000ca
:10838000c0c89b004819de0051c8930060406000df
:1083900002407000d0c89b00ce00900021c893001e
:1083a0000082fb0031c893000080fb004800dd0024
:1083b000040070000001780041c893000082fb00b7
:1083c00051c893000080fb004800dd0004007000ed
:1083d000800178008003210001002000800f5100ff
:1083e000818f590004003e00ce00900010c0b30001
:1083f000a0c09b001b003700ce00900021c8930056
:108400000082fb0031c893000080fb004800dd00c3
:10841000040070000001780041c893000082fb0056
:1084200051c893000080fb004800dd00040070008c
:1084300080017800f0d52f00f1032000800f51005b
:10844000818f590004003e00ce00900060c0b30050
:10845000a0c09b00030037008081eb00130f980041
:1084600079003700ce0090005e019000f00f2000f0
:108470000001610061c09300604060000240700034
:10848000e0c09b005e0090004801de0071c09300d8
:108490006040600002407000f0c09b006e019000e0
:1084a000f00f20000001610001c8930060406000ef
:1084b0000240700080c89b006e0090004801de0002
:1084c00011c89300604060000240700090c89b009b
:1084d0005e019000ee0190007e0090008e089000fa
:1084e00002004000838048000081eb008081eb00a7
:1084f000021f4000039748001e00be0012ec23003c
:108500000300200056e00700ce09dd00c200de00b7
:10851000818071004e00dd0020079800310798002f
:108520001e00be0012ec2300030020005ce00700e8
:10853000008fbe001e00be00f203200003002000da
:1085400047e007004609dd00ca01de008301710033
:108550004601dd002e009000be0090000200700079
:108560008380700020079800310798001e00be002d
:10857000f20320000300200049e00700008fbe0046
:1085800010002000010020003e014000ae814800a4
:108590002e009000be0090000200700083807000ea
:1085a00020079800310798002e009000be00900030
:1085b0004008de0001002000804078003063220087
:1085c000014878002e009000be0090004809dd00b0
:1085d0004800de0000007100c808de00804078001e
:1085e00040632200014878002e009000804078000f
:1085f0005063220001487800ce0090000040eb005c
:10860000e0789b00ce00900050c5b300e0f89b00de
:10861000ce009000a0cab300f0f89b0013c0b300d6
:10862000024722006000b800a22b0700e14f500073
:10863000030032008081eb00130f98000200370026
:108640000000eb00100f98001e0890000080fa0058
:10865000000006005600fa00407f9800721f980044
:1086600003279800112798007e00470060079800b4
:108670000040eb0012e8b700ee0090000047220037
:1086800080087800782a0700462c0700e14f500048
:108690000500320060c0b30012e8b7000080eb00b4
:1086a000402798008c033700024722006000b80082
:1086b0000f2b07000004e00005003a00b0c1b30032
:1086c00012e8b7008080eb00412798008203370052
:1086d0006e00900010007800700798007e009000f7
:1086e000e0f8930050c5b30080cf50005d003a0021
:1086f0007e009000f0f89300a0cab30080cf500035
:1087000058003a006e0090001000780061032000cd
:10871000a80d07008040780060c4b30080cf5000ef
:108720003c003a006e0090001000780071032000b9
:10873000a00d07008040780010c4b30080cf500027
:1087400034003a006e009000100078008103200091
:10875000980d07008040780040c5b30080cf5000de
:108760002c003a006e009000100078009103200069
:10877000900d07008040780010c3b30080cf5000f8
:1087800024003a006e009000100078006102200082
:10879000880d07008040780090c2b30080cf500061
:1087a0001c003a004e7890000000fb003027980033
:1087b0003e2190000200e00009003200be2190003e
:1087c000e18f51000100320026003700f0c1b300f4
:1087d00012e8b7000082eb00442798003e03370000
:1087e0006e0090006011b8001200980023009800fd
:1087f0006e00900042fd07000004e0001900320006
:10880000b0c1b30012e8b7000080eb004027980029
:108810003103370000472200600f9800ee089000f7
:1088200061c093000082fb0071c093000080fb00d8
:108830004800dd00040070000001780001c89300ca
:108840000082fb0011c893000080fb004800dd009f
:1088500004007000800178006e0090001200980003
:10886000230098004e7890000000fb00202798001d
:10887000ae2090000100e000380232002e2190006e
:10888000e10f5100010032003d023700ee08900078
:1088900021c893000082fb0031c893000080fb00d8
:1088a0004800dd00040070000001780041c893001a
:1088b0000082fb0051c893000080fb004800dd00ef
:1088c0000400700080017800420f9800530f980058
:1088d0004e099000de099000800321000100200075
:1088e000800f5100818f590027003e00ee0090005c
:1088f00010c0b300c0589800ee08900010c0b3003c
:10890000a0c09b0013c0b300024722006000b80063
:10891000e82a07000004e00005003a0090c0b30018
:1089200012e8b7008081eb0043279800ea02370085
:108930004e099000de099000700221000100200025
:10894000800f5100818f590004003600ee00900026
:1089500020c0b300b058980003003700ee0090002c
:1089600010c0b300b0589800004722000220200039
:108970008000eb005bdf0700a14a220020c3b300a8
:10898000804878004f0037004e099000de099000c3
:10899000f0d52f00f1032000800f5100818f590086
:1089a00043003e00ee00900020c0b300c058980085
:1089b000ee08900060c0b300a0c09b0013c0b300dd
:1089c000024722006000b800ba2a07000004e00055
:1089d00005003a0090c0b30012e8b7000082eb0037
:1089e00044279800bc0237004e099000de09900031
:1089f00080de2f00f1ff2f0002004000838048003e
:108a0000200f9800310f9800ee00900010c0b300c6
:108a1000b05898000d0037006e009000305890005c
:108a20000080fb0000004000804078006e00900055
:108a3000315898002e089000be0890008100d100a7
:108a40000080d300200f9800310f98002e0990006d
:108a5000be099000d0fe2f0001002000800f5100c1
:108a6000818f5900ecff3e006e009000b0589000de
:108a700000c8b30080cf50000500360040c0b300ee
:108a800012e8b7000080eb00402798009202370000
:108a900000472200022020008000eb0011df0700c9
:108aa000a14a220060c3b300804878000500370067
:108ab00070c1b30012e8b7008080eb004127980036
:108ac000850237006e009000305890000080fb0057
:108ad000000040006101b9004e089000de089000df
:108ae0000201400083814800f0fd2f00f1ff2f00bc
:108af000020040008380480030079800410798003a
:108b00006e00900040589000e14f50000a003a007b
:108b10006e009000305890008080fb0050152000bf
:108b20000088b9000080e800cf80de0010079800c0
:108b300021079800080037006e0090003058900020
:108b40000080fb004800dd000080e800cf80de00f0
:108b500010079800210798001e019000ae019000b8
:108b60003e009000ce00900002004000838048004c
:108b700061005000e08058001e019000ae0190009e
:108b8000b7de070030079800410798000147220030
:108b9000b0ceb3008048780011472200c0c3b300b4
:108ba000804878002147220000c9b300804878003f
:108bb00031472200d0c4b3008048780041472200ea
:108bc00030c4b300804878005147220080c4b3000d
:108bd000804878006147220000c5b30080487800d3
:108be0007147220000c2b30080487800814722000c
:108bf00060c4b300804878009147220010c4b300dd
:108c000080487800a147220040c5b3008048780022
:108c1000b14722000040eb0080487800c1472200a5
:108c200020c0b300804878006e009000b0589000db
:108c3000d047220001487800e147220080c0b300fd
:108c400080487800f14722000040eb00804878001f
:108c50006e009000a000900010009000680040009e
:108c6000e08048006e0190003001980041019800ba
:108c70000148220020c0b30080487800ee00900038
:108c800020c0b300a0589800114822000040eb001b
:108c9000804878002148220020c0b3008048780036
:108ca000ee0090000020200090089800314822003b
:108cb0000040eb0080487800414822000040eb0073
:108cc000804878005148220080cfb3008048780067
:108cd0003e00900080407800604822000148780003
:108ce0003e009000ce0090004809dd004800de0004
:108cf00000007100c808de00804078007048220043
:108d000001487800be0090006e0090004108980075
:108d100081482200f0c3b3008048780091482200c7
:108d20000040eb0080487800a148220000c0eb0022
:108d300080487800b14822000040eb00804878006d
:108d40006e009000a000900010009000804078001d
:108d5000c0482200014878006e009000a0009000fa
:108d600010009000c809dd004800de00008071009e
:108d7000c808de0080407800d04822000148780012
:108d80006e009000a0009000100090004008de00ef
:108d90000100200080407800e0482200014878006f
:108da0006e009000a0009000100090004808de00c7
:108db0000100200080407800f0482200014878003f
:108dc0004e08900080407800004922000148780059
:108dd0004e089000de089000480add004800de00e2
:108de00000007200c808de008040780010492200b0
:108df000014878004e089000de0890004008de0030
:108e000001002000804078002049220001487800bd
:108e10004e089000de0890004808de0001002000a7
:108e20008040780030492200014878004149220002
:108e30000040eb0080487800514922000040eb00e0
:108e4000804878006149220090c2b30080487800d1
:108e50007e1890008040780000c0eb0080c0600069
:108e600070492200014878007e1890008e20900002
:108e700050279800612798005e209000ee20900017
:108e8000e00f5000e08f580006003d005e2190008a
:108e9000ee219000f20fb0000380b000522798003e
:108ea000632798005e219000ee219000481add00b3
:108eb0004810de0000007200c898de008040780094
:108ec00000c0eb0080c060008049220001487800ab
:108ed0007e1890008e20900070279800012f980037
:108ee0007e2090008e289000e00f5000e08f580008
:108ef00008003d00f0ff2f00010020007e219000bf
:108f00008e2990000201400083814800722798005a
:108f1000032f98007e2190008e2990004098de005b
:108f2000cf80de008040780000c0eb0080c0600091
:108f300090492200014878007e1890008e20900011
:108f4000102f9800212f98001e289000ae28900026
:108f5000e00f5000e08f580008003d00f0ff2f00a8
:108f6000f10f20001e299000ae2990000201400060
:108f700083814800122f9800232f98001e2990000b
:108f8000ae2990004898de00cf80de008040780057
:108f900000c0eb0080c06000a049220001487800ba
:108fa0001e2090000000e000270032000040eb008f
:108fb000004f78000d0037001e80fb00b202200039
:108fc000000141001e80fb00800078001e20900000
:108fd0000080400010407800804078000047220068
:108fe00000004100014878001e4fe8001e80fb0091
:108ff000800078001e209000008040001040780023
:109000000004e0000c003200a3c0b3009ecf1100aa
:10901000e9ff3600080037001e80fb00b102200087
:1090200080804000004722008080400000c2b300e2
:10903000804878001e4fe800a4c0b3009e4f120085
:10904000f5ff36000e0037000040eb00004f7800bf
:10905000080037001e80fb00b10220008080400025
:1090600000472200808040000040eb0080487800ec
:109070001e4fe800a0c0b3009e4f1000f5ff360061
:10908000614a220060c4b30080487800714a22001f
:1090900010c4b30080487800814a220040c5b30064
:1090a00080487800914a220010c3b30080487800bd
:1090b000b14a220000c2b30080487800c14a2200b1
:1090c00000c2b30080487800d14a220000c2b30039
:1090d00080487800e166220050c5b30080487800df
:1090e000f1662200a0cab300804878006e009000ac
:1090f00030019000c00190006e0090002058900058
:109100008080fb006e009000400890000088b9004d
:109110000100200002004000838048006e019000a2
:1091200050019800610198006e009000a00090002e
:10913000100090008041eb0002472200dd2807006c
:109140000004e00013003a0090c0b30012e8b7003a
:109150008080eb0041279800df0037006e00900010
:10916000e7fa07000004e0000a003200b0c1b300d3
:1091700012e8b7000081eb0042279800d6003700c4
:10918000f0c1b30012e8b7008081eb0043279800dc
:10919000d100370000472200022020008000eb00b1
:1091a00050dd07000147220080cfb30080487800df
:1091b0001147220000c0eb008048780021472200c0
:1091c00000c0eb00804878006e009000405890008e
:1091d000e24f500003003a003147220000c0eb008c
:1091e000804878006e009000205890000080fb00be
:1091f0000000e90050079800150037006e0090004d
:1092000030019000c00190006e009000c0089000f6
:109210005e0090000088b9000100200002004000bc
:10922000838048008041eb0002472200a12807000c
:109230000004e00003003a000082eb00442798009d
:10924000a50037005e0090000000e900500798007c
:109250005e009000e10f4000e8ff3a006000b800b7
:1092600080238900912389006e009000c000900047
:1092700030009000004fe8001c0037006e009000a6
:10928000205890000080fb000000e9005007980083
:10929000120037001e81fb006e009000c008900095
:1092a0005e0090000088b90000004100010020002d
:1092b0008041eb00024722007e2807000004e00006
:1092c00003003a000080eb0040279800820037003e
:1092d0005e0090000000e900500798005e009000da
:1092e000e10f4000ebff3a001e4fe8001e407800ff
:1092f0000082fb00050020006e009000300190000d
:10930000c00190006e009000400890000100200015
:109310000200400083804800800f5200818f5a0075
:10932000d6ff39006e009000100890004500dd0067
:10933000f01fb0004900de0001002000000f98007f
:10934000110f980010c0b300004f780011003700d3
:109350006e00900050019000e00190001e407800e7
:109360000080fb00010020000200400083804800d4
:109370008041eb00024722004e2807000004e00075
:1093800003003a008080eb0041279800520037002c
:109390001e4fe8001e4078000081fb000300200003
:1093a0000e0890009e089000800f5100818f590098
:1093b000e7ff39001e2090000000e0003900320075
:1093c0000040eb00004f78000b0037001e81fb00cf
:1093d0001e80fb00800078001e209000008040006e
:1093e00010407800804078000047220000004100d3
:1093f000014878001e4fe8001e80fb0080007800c6
:109400001e20900000804000104078000004e00022
:109410000a003200a2c0b3009e4f1100ebff3600dd
:10942000060037009e80fb0000472200808040003d
:1094300000c2b300804878001e4fe800a3c0b3000c
:109440009ecf1100f7ff3600b147220080c0b30065
:10945000804878001148220010c1b300804878008d
:109460003148220010c1b3008048780071482200c2
:1094700010c1b300804878006e009000e0009000ba
:10948000500090008041eb000247220009280700ad
:109490000004e0000e003a000082eb004427980030
:1094a0000d0037006e009000e0009000500090002a
:1094b0008041eb0002472200fe2707000004e00085
:1094c00003003a000080eb004027980002003700bc
:1094d0008000eb00412798004e2090000080fa00a9
:1094e000000006001200fa0060079800710798005b
:1094f000c4e2a8006e009000900078005107980028
:109500006e00900010199000a0199000028fbe000c
:109510007e009000100078004400de00004f9800ac
:109520005e009000405890000080fb00000f980003
:109530008e099000e18f51001f0035000e08900049
:10954000e20f50000e0034008e089000e38f5000b0
:1095500001003200180037005e009000b058900003
:109560000e4890000080fb000181fb001100090003
:109570000280d8008000fd00004f98000e003700e8
:109580007040800081408000be0f1000ae8f180038
:10959000090032005e009000b05890000e48900024
:1095a0000080fb000181fb00110009000280d8004f
:1095b0008000fd00004f98001e01be005e0090007c
:1095c000390a070020079800310798005e009000d4
:1095d000100278000e4890000081fb00030020007c
:1095e0002e009000be0090000200400083804800e2
:1095f0008041eb0004017800ae2707000004e00082
:1096000003003a000040eb00104f980002003700c2
:1096100010c0b300104f9800c4e2a9001e4890008b
:109620000080fb000080fa00000006001800fa002d
:1096300070079800010f9800120f98000000eb00cf
:10964000000f78001e089000405890000080fb003a
:10965000300f98003e089000e20f500010003200da
:10966000be089000e38f5000040032003e089000d6
:10967000e10f5000130032001a003700f0ff2f00f6
:10968000f1ff2000100798002107980080ff2f00ad
:10969000f1ff2000300798004107980011003700c3
:1096a000f0ff2f000100200010079800210798000c
:1096b00080ff2f000100200030079800410798002c
:1096c00008003700f0ff2f0001002000100798006d
:1096d0002107980080ff200001002000300798003b
:1096e000410798007e0090008e089000e00f500027
:1096f000e08f5800070032007e0190008e09900034
:109700001000200001002000800f5100818f5900bf
:109710003d003a0020002000000f78003c00370098
:109720007e0190008e0990001e089000f20f070045
:1097300050079800610798005e019000ee019000cc
:109740001e009000ae009000800f5100818f5900e4
:1097500003003a0010002000000f78002a003700b4
:109760005e009000ee009000e00f5000e08f580087
:10977000070032005e019000ee0190001000200012
:1097800001002000800f5100818f590003003a0032
:1097900020002000000f78001b0037005e019000c1
:1097a000ee0190003e009000ce009000800f51002e
:1097b000818f59000200390020002000000f78003e
:1097c0008040eb006022b8007e0190008e0990007e
:1097d0001e0890009c1107000001be001e009000b2
:1097e000ae009000800f5100818f590002003a00b6
:1097f00010002000000f78005e009000ee00900046
:1098000070079800010f98001e00e000c4ff3200ae
:1098100011c0b3006022b8006011b8001e089000ab
:1098200089110700210020009e8f100003003a00dc
:1098300010002000200f9800020037008000eb008d
:10984000210f98002e0890000080fa00000006000a
:109850002000fa00300f9800410f9800225f980016
:109860003e08900090007800110f98003e0890008c
:1098700070119000801990005207980063079800bb
:109880003e08900010199000a0199000120798004f
:10989000230798004e089000100078004400de0076
:1098a000104798001e089000405890000080fb0070
:1098b000700f9800fe099000e18f510027003500dd
:1098c0007e089000e20f500012003400fe08900065
:1098d000e38f500001003200200037001e08900086
:1098e000b05890001e4090000080fb000181fb00fa
:1098f000110009000280d8008000fd001047980088
:1099000080ff2f00f1ff20003007980041079800ea
:10991000120037005e009000ee009000e00f500053
:10992000e08f5800090032001e089000b0589000e7
:109930001e4090000080fb000181fb001100090027
:109940000280d8008000fd001047980080ff2f00a3
:109950000100200030079800410798002e58900021
:109960000004e00005003a004e0890001000780066
:109970006f0060000000e00097003a001e40900079
:109980000004e00004003a004e0890001000780047
:10999000ef0f500003003e002e5890000004e0003e
:1099a000290032005e009000ee009000e00f5000b1
:1099b000e08f580004003a006000b80010079800db
:1099c00021079800200037002e5890000004e00086
:1099d0000a0032004e089000900078001e089000a7
:1099e000305890000080fb004401dd0011000900a8
:1099f0008280d800004f78001100370010c0b300fb
:109a0000004f78000e0037001e019000ae0190005c
:109a10001e089000380f07001007980021079800d3
:109a20001e019000ae0190003e009000ce0090001c
:109a3000800f5100818f5900030031001e4fe90053
:109a40001e04e000f0ff3a001e019000ae019000fd
:109a50003e009000ce009000800f5100818f590091
:109a6000580031003e0890001e019000ae019000a9
:109a700012189800231898001e019000ae01900063
:109a80001e0890000809070070079800010f980051
:109a900072408000834080001e009000ae00900065
:109aa000820f5000838f580014003a001e4090002f
:109ab0000081fb00030020007e0090008e089000d3
:109ac00002014000838148001e0890008008900039
:109ad00070009000800f5100818f590007003900fd
:109ae0001e08900040589000e34f500003003200e1
:109af0000000eb00200f9800400037003ec8bf0078
:109b00000004e00006003200d60a07000004e0006e
:109b1000030032008001eb00630f9800390037002a
:109b20000000eb00c04188000040eb0040e8b700b7
:109b30001e089000100278001e4090000081fb007b
:109b4000030020007e0090008e089000020040007c
:109b50008380480004017800e5250700e14f5000ac
:109b6000030032000000eb00200f980010003700c7
:109b70002e5890000004e0000a0032001e089000f9
:109b800010007800800078004e08900010007800e7
:109b90006f0060004500dd0000804000200f98004d
:109ba000030037001e08900010007800200f980076
:109bb0000080eb008080eb00d0418800e14188000c
:109bc0000e00370010c0b3003fe8b7000000eb0004
:109bd000200f9800090037001e0890001000780040
:109be000800078004e089000100078006f00600040
:109bf0004500dd0000804000200f98002e089000f6
:109c0000600f98006e0890000080fa0000000600c7
:109c10001400fa0070079800010f9800225798006e
:109c20000000eb00000f78000040eb0012e8b700e6
:109c30000040eb00204798000d0037002e409000b8
:109c40000081fb002e4090000080fb00fe00900091
:109c50007c00400001004000904078006300470015
:109c6000017178002e4090000040e80020479800e5
:109c70002e409000ea4f5000f0ff36000e08900092
:109c80008000eb00010878008e0890007e009000b4
:109c90005c0007000004e0000d003200e300470014
:109ca000ae5190000e0990007e009000df0007008a
:109cb0000080fb00000f78001e00e00006003a0064
:109cc0007e00900009000700000f780002003700b6
:109cd00040012000000f78001e00780012e8b70055
:109ce0001e0078000080fa00000006001400fa0050
:109cf000700798007e009000401090006007980068
:109d0000e80047007e0090009007070030079800a9
:109d10003e0090000000e00037003a00ec004700f1
:109d20007e009000cb030700000f78004e009000eb
:109d3000de009000800078001e0078005108980036
:109d40004e009000de00900002002000f3ff200093
:109d50000002780081027800020078008300780019
:109d600000016200018062006102b800040f9800e7
:109d7000150f98000e0890009e089000c000dd00ae
:109d800000002000000f9800110f98000e089000ae
:109d90009e0890006112b800040f9800150f9800fb
:109da0000e0990009e0990000200700083807000f0
:109db00010079800210798001e009000ae00900048
:109dc0004008de00010020001007980021079800dd
:109dd0009e0090001e00780021089800ec004700cb
:109de0007e009000bffd0700e14f500002003200ee
:109df00090002000300798003e0090000080fa009c
:109e0000000006001200fa00600798007107980031
:109e100010c0b300204f98006e0090008018900092
:109e2000701090006e019000101998002119980090
:109e300012c0b300fe0090006e00900084fe070088
:109e4000000f78001e00e00067003a00b0c1b300c8
:109e5000204f98006a0037000040eb00104f980038
:109e60007e00900090007800310798000041eb00e0
:109e7000fe0090006e00900075fe0700000f780055
:109e80001e00780010407800004f98007e0090007f
:109e9000100078008000e8007e0090000108780043
:109ea0000e489000fb4f4000030032000e48900027
:109eb0000004e00008003a001e00e0000600320046
:109ec0001e4890000040e800104f98001e48900087
:109ed0000004e000e5ff32001e00e0003a003a0016
:109ee0006e00900010199000a019900012079800c1
:109ef0002307980072408000834080001e0090007d
:109f0000ae009000820f5000838f58001b003a0073
:109f10006e0090001000780040589000e34f500011
:109f20000300320020c0b300204f98002e003700fd
:109f30006e0090001e019000ae019000320098006b
:109f40004300980011c0b3006e009000ac00070001
:109f5000f54f500003003a0020c0b300204f980096
:109f6000210037007e009000be01900003087800b9
:109f70000040eb00204f98001b0037006e0090005f
:109f80001e019000ae01900032009800430098003e
:109f900011c0b3006e00900099000700f54f50000b
:109fa00003003a0020c0b300204f98000e00370095
:109fb0007e009000be019000030878000040eb0096
:109fc000204f9800080037001e489000e14f5000d5
:109fd00005003a000040eb00204f98007e00900002
:109fe000be009000010878002e489000e14f50001c
:109ff00099ff32007e0090003e0190000208780038
:10a000002e4890000004e00003003a0013002000f6
:10a01000030f9800020037000000eb00000f9800cb
:10a020000e0890000080fa00000006000e00fa0002
:10a03000200798003107980042079800234f9800a6
:10a040000040eb00204798002e0090008018900000
:10a05000701090002e01900010199800211998009e
:10a0600012c0b300ce0090002e009000f8fd070053
:10a07000000f78001e00e00003003a00b00120004d
:10a08000600798005b0037001e007800b2002000d7
:10a09000be009000c9d907002e489000f24f500032
:10a0a00004003a009e00780000c1b300b048980058
:10a0b000030037009e00780000c2b300b04898004b
:10a0c0009e0078000040eb00c04898009e00780099
:10a0d0000000eb00a00898009e0078000000eb0054
:10a0e000d00898001e0178006000b8006009980050
:10a0f000710998009e00780020cbb300d0489800ea
:10a100009e00780080272700f00098009e007800cd
:10a11000002b2300800898002e489000f24f50003a
:10a120000a0032009e007800002b2300900898005f
:10a130009e00780090272700b00898009e007800c5
:10a14000002b2300c0089800090037009e0078000b
:10a150000000eb00900898009e0078000000eb00e3
:10a16000b00898009e0078000000eb00c00898003e
:10a170001e007800f0089000600890002e0190000a
:10a1800010099800210998001e007800f000900046
:10a190002e009000410898001e0078008008900072
:10a1a0002e009000510898001e0078003048900062
:10a1b0008080fb002e009000611098004e009000ff
:10a1c000900078002e00900041109800ce00900082
:10a1d0002e009000c3fc0700e14f50000200320047
:10a1e00090c0b300204798002e4090000080fb00f4
:10a1f000600798006e0090000080fa0000000600e2
:10a200001000fa0050079800414f98005e0090003f
:10a2100090007800410798005e00900030019000a7
:10a22000c001900022079800330798005e0090005c
:10a230004700070020079800310798002e00900083
:10a24000be009000e00f5000e08f580003003a007d
:10a2500053012000730798003a0037004e00900029
:10a2600040589000e14f500008003a008040eb0059
:10a2700084ff2000050020002e019000be01900008
:10a280004e009000f00e0700130037004e009000c3
:10a2900040589000e24f500008003a008040eb0028
:10a2a00084ff2f00050020002e019000be019000c9
:10a2b0004e009000e40e0700070037008040eb00de
:10a2c00084ff2f00f5ff20002e019000be019000ba
:10a2d0004e009000dc0e07005e0090003001900000
:10a2e000c0019000028fbe008040eb002e02900063
:10a2f000be0290001e01be004e009000d20e07006c
:10a300005e0090002e019000be0190003200980087
:10a31000430098004e489000e14f500007003a007b
:10a320002e019000be0190004e0090005d060700d7
:10a330000080fb0070079800020037008001eb00ee
:10a34000730798007e0090000080fa00000006006d
:10a350001a00fa00300f98006000b800000f980053
:10a36000110f98003e08900090007800210f98008f
:10a370003e08900030019000c001900062079800f4
:10a38000730798002e089000405890000080fb0052
:10a39000400f9800ce099000e28f51000f0032006c
:10a3a0004e089000e30f500004003200ce089000e9
:10a3b000e18f5000110032001700370070ff2f00ae
:10a3c000f1ff20002007980031079800f0ff2f00d0
:10a3d000f1ff2000008fbe000f00370070ff2f003c
:10a3e000010020002007980031079800f0ff2f009f
:10a3f00001002000008fbe000700370070ff200022
:10a40000010020002007980031079800f0ff2f007e
:10a4100001002000008fbe006e019000fe01900040
:10a420001000200001002000800f5100818f590092
:10a4300004003e002000200001002000600798007a
:10a44000710798006e019000fe019000420798008d
:10a45000530798006e019000fe0190002e089000b6
:10a46000a50c0700380037006e019000fe01900037
:10a470002e089000a00c0700000f9800110f980004
:10a480000e0890009e089000be0f5000ae8f58003e
:10a4900004003a006000b800600798007107980057
:10a4a0002e0037000e0890009e089000e00f50002c
:10a4b000e08f5800290032006e009000fe009000ee
:10a4c00061004000e0804800600798007107980034
:10a4d0000e0990009e0990002e009000be00900092
:10a4e000800f5100818f5900080032002e08900023
:10a4f00020099000b00990006e009000fe009000ce
:10a50000800f5100818f590004003e002000200080
:10a510000100200060079800710798006e0190000c
:10a52000fe0190004e009000de009000800f510070
:10a53000818f590004003a006000b800600798005d
:10a5400071079800050037006e009000fe00900033
:10a55000e00f5000e08f5800c3ff3a006e009000fb
:10a56000fe0090000080fa00000006001000fa00d3
:10a570004007980080042000100798000040eb007e
:10a5800012e8b7004e00900040109000300798008d
:10a590004e00900030089000610060000000e00074
:10a5a000650032003ec8bf000004e0000800320031
:10a5b0002c0807000004e0000500320090c0b30042
:10a5c00012e8b7000080eb005007980079003700d0
:10a5d0004e0090001000780011c0b3006022b80057
:10a5e0006011b800180e0700e60047004e0090000a
:10a5f00098010700000f78001e00e00007003a00f5
:10a60000b0c1b30012e8b7000080eb00100798005b
:10a610009e00900051079800660037001e007800e9
:10a6200067000700000000004e009000a0089000a6
:10a63000100890001e0178006009980071099800c8
:10a640004e00900060109000804078001e0078005e
:10a65000314898004e009000a0009000100090003b
:10a6600002002000f3ff2f00000278008102780032
:10a67000020078008300780000016200018062001f
:10a680006102b80064079800750798006e0090009a
:10a69000fe009000c000dd00000020006007980070
:10a6a000710798006e009000fe0090006112b800e3
:10a6b00064079800750798006e019000fe019000f5
:10a6c00002007000838070004008de00010020005e
:10a6d000800078001e007800210898004e0090004d
:10a6e000a000900010009000800078001e0078000c
:10a6f00051089800e60047004e00900079fb0700e3
:10a700000004e000030032000000eb001007980096
:10a710000400370090c0b30012e8b7000080eb00df
:10a72000100798004e019000b2089000e0ff2f0043
:10a7300000806000300998000000eb0020079800be
:10a7400011003700ae009000600320000088b900bf
:10a750008000780000872200808040004e0090003a
:10a76000808f500005003a002e01900021912200b8
:10a7700010c0b30000f17800060037002e009000f2
:10a780000000e800200798002e009000e20f500023
:10a79000ecff36009e00900080042000808f500067
:10a7a00002003a000000eb00100798009e019000a4
:10a7b000530798005e0090000080fa000000060039
:10a7c0000800fa00300798003e0090003008900022
:10a7d0007f406000504798003e009000b008900015
:10a7e000007e2000008060004500de0040479800a9
:10a7f0003e009000b008900000802f0000806000b4
:10a800004b00de00304798003e009000400890006a
:10a810007f406000204798003e009000c0089000f4
:10a82000001e2000008060004500de0010479800f8
:10a830003e009000c008900000e02f000080600003
:10a840004900de00004f78005e409000fc4f500051
:10a8500004003e005e4090000040e8005047980031
:10a86000280037000040eb0050479800ce40900091
:10a87000a0c3b30080cf500004003e004e409000c3
:10a880000040e800404798001e0037000040eb0001
:10a89000404798003e409000f64f500004003e00b4
:10a8a0003e4090000040e800304798001500370017
:10a8b0000040eb00304798002e409000fd4f5000c4
:10a8c00004003e002e4090000040e8002047980021
:10a8d0000c00370010c0b300204798001e409000c5
:10a8e000eb4f500004003e001e4090000040e80086
:10a8f000104798000300370010c0b30010479800bd
:10a900001e4fe8005e4090008080fb003e009000fb
:10a91000310898003e009000b00890004e40900032
:10a920000080fb004500dd00808070003e0090004c
:10a93000310898003e009000b00890003e40900022
:10a940000080fb004b00dd00808070003e00900026
:10a95000310898002e4090008080fb003e0090005f
:10a96000410898003e009000c00890001e409000f2
:10a970000080fb004500dd00808070003e009000fc
:10a98000410898003e009000c00890001e80fb0027
:10a990004900dd00808070003e0090004108980072
:10a9a0000080fa00000006000c00fa004007980042
:10a9b000510798000040eb00004f78005e009000c7
:10a9c000100078006f0060000000e00010003a0006
:10a9d0005e009000100078000000e0000c003200e3
:10a9e0004e00900080189000701090004e01900072
:10a9f000101998002119980012c0b300de009000d1
:10aa00004e00900092fb07003007980005003700c9
:10aa10000041eb00de0090004e0090008cfb070030
:10aa2000300798003e0090001040780030479800b2
:10aa30003e0090000000e000030032003e40900025
:10aa40000004e00003003a0020c0b3001047980063
:10aa50007c0037003e409000fb4f400003003a006e
:10aa600010c0b30010479800760037003e009000f9
:10aa7000b0489000314798000040eb0040479800f4
:10aa8000140037004e4090008080fb003e00900094
:10aa90000080400010407800204798002e40900031
:10aaa0000080fb0008d70700204798001e80fb00ad
:10aab0002e419000ce0090007c004000010040003c
:10aac000024878001e4fe8004e4090000040e80029
:10aad000404798004e409000e74f5000e9ff360095
:10aae0003e009000b0489000314798003e00900032
:10aaf00000489000204798000040eb004047980035
:10ab0000150037004e4090000080fb00be00900012
:10ab10006800400001004000104078002047980085
:10ab20002e4090000080fb00e7d6070020479800e9
:10ab30001e80fb002e419000ce0090007c00400063
:10ab400001004000024878001e4fe8004e4090008f
:10ab50000040e800404798004e409000e24f50000f
:10ab6000e8ff36005e009000900078004e009000f4
:10ab7000411098003e009000104078003047980047
:10ab80003e409000fb4f400003003a0010c0b3006d
:10ab900010479800020037000040eb001047980073
:10aba0003e009000f0089000600890004e01900078
:10abb00010099800210998003e00900050f5070008
:10abc0004e01900010019800210198003e00900075
:10abd000b0489000314798003e4090008080fb00d4
:10abe0004e009000611098003e4090000080fb00f5
:10abf0004400de00610060000004e0000900320053
:10ac00003e009000f00090004e0090004108980037
:10ac10003e009000800890004e009000510898007f
:10ac2000080037003e009000b00890004e009000f1
:10ac3000410898003e009000c00890004e0090002f
:10ac4000510898001e4090000080fb000080fa0030
:10ac5000000006000a00fa0020079800310798005b
:10ac60002e00900080189000701090002e0190002f
:10ac7000101998002119980012c0b300be0090006e
:10ac80002e009000f2fa0700100798001e009000b6
:10ac90000000e00003003a000000eb0040079800cd
:10aca0002c0037001e00900010407800004f780004
:10acb0001e04e00002003a000000eb0010079800bc
:10acc0001e0090000000e0002000320051ceb300d2
:10acd0009ecf100003003a000000eb001007980020
:10ace0001a0037001e009000b0489000014f780015
:10acf000130037003e009000100078008000e8004c
:10ad00003e009000010878000041eb00be0090007a
:10ad10002e009000cefa0700100798001e00900049
:10ad20000000e00003003a000000eb00400798003c
:10ad3000080037001e009000b0489000014f7800d6
:10ad4000f0c0b3009e4f1000eaff32009e0090005a
:10ad5000410798004e0090000080fa0000000600b5
:10ad60001400fa00600798007107980002579800d5
:10ad70000000eb00300798006e009000100f780084
:10ad80006e009000701190008019900012079800da
:10ad9000230798006e0090001e019000ae01900005
